{
	"data": {
		"bytecode": {
			"linkReferences": {},
			"object": "6080604052348015600e575f80fd5b506104c28061001c5f395ff3fe608060405234801561000f575f80fd5b5060043610610060575f3560e01c80630f4081a914610064578063172e277e1461007957806342b09cf41461008c5780638c16e3991461009d57806396cf0f901461008c578063b3402908146100b0575b5f80fd5b61007761007236600461018f565b6100c2565b005b6100776100873660046101fb565b610101565b61007761009a36600461021b565b50565b6100776100ab3660046102cf565b610141565b6100776100be36600461035c565b5050565b7f64f0e70c68d62ec18f2a0117676d3c31e8eedf2760be0aea3b5a92811347b8c58282336040516100f5939291906103b9565b60405180910390a15050565b604080518381526020810183905233918101919091527f8e5cd680487093da8928d8e8c55ef924615f4518218420ddb0383df65fe541cb906060016100f5565b7f96f8000491529838b4f00ceff470989adbe416271d25b680671d1173f110a3fa878787878787873360405161017e989796959493929190610427565b60405180910390a150505050505050565b5f80602083850312156101a0575f80fd5b823567ffffffffffffffff808211156101b7575f80fd5b818501915085601f8301126101ca575f80fd5b8135818111156101d8575f80fd5b8660208285010111156101e9575f80fd5b60209290920196919550909350505050565b5f806040838503121561020c575f80fd5b50508035926020909101359150565b5f6020828403121561022b575f80fd5b5035919050565b634e487b7160e01b5f52604160045260245ffd5b5f82601f830112610255575f80fd5b813567ffffffffffffffff8082111561027057610270610232565b604051601f8301601f19908116603f0116810190828211818310171561029857610298610232565b816040528381528660208588010111156102b0575f80fd5b836020870160208301375f602085830101528094505050505092915050565b5f805f805f805f60e0888a0312156102e5575f80fd5b87359650602088013595506040880135945060608801359350608088013567ffffffffffffffff80821115610318575f80fd5b6103248b838c01610246565b945060a08a0135915080821115610339575f80fd5b506103468a828b01610246565b92505060c0880135905092959891949750929550565b5f806020838503121561036d575f80fd5b823567ffffffffffffffff80821115610384575f80fd5b818501915085601f830112610397575f80fd5b8135818111156103a5575f80fd5b8660208260051b85010111156101e9575f80fd5b60408152826040820152828460608301375f60608483018101919091526001600160a01b03929092166020820152601f909201601f191690910101919050565b5f81518084528060208401602086015e5f602082860101526020601f19601f83011685010191505092915050565b5f6101008a8352896020840152886040840152876060840152806080840152610452818401886103f9565b905082810360a084015261046681876103f9565b60c084019590955250506001600160a01b039190911660e090910152969550505050505056fea26469706673582212208572ccea1f6f0d286171426d92a5b5e1d680dfa7a07d71668ab819eb13343cc264736f6c63430008190033",
			"opcodes": "PUSH1 0x80 PUSH1 0x40 MSTORE CALLVALUE DUP1 ISZERO PUSH1 0xE JUMPI PUSH0 DUP1 REVERT JUMPDEST POP PUSH2 0x4C2 DUP1 PUSH2 0x1C PUSH0 CODECOPY PUSH0 RETURN INVALID PUSH1 0x80 PUSH1 0x40 MSTORE CALLVALUE DUP1 ISZERO PUSH2 0xF JUMPI PUSH0 DUP1 REVERT JUMPDEST POP PUSH1 0x4 CALLDATASIZE LT PUSH2 0x60 JUMPI PUSH0 CALLDATALOAD PUSH1 0xE0 SHR DUP1 PUSH4 0xF4081A9 EQ PUSH2 0x64 JUMPI DUP1 PUSH4 0x172E277E EQ PUSH2 0x79 JUMPI DUP1 PUSH4 0x42B09CF4 EQ PUSH2 0x8C JUMPI DUP1 PUSH4 0x8C16E399 EQ PUSH2 0x9D JUMPI DUP1 PUSH4 0x96CF0F90 EQ PUSH2 0x8C JUMPI DUP1 PUSH4 0xB3402908 EQ PUSH2 0xB0 JUMPI JUMPDEST PUSH0 DUP1 REVERT JUMPDEST PUSH2 0x77 PUSH2 0x72 CALLDATASIZE PUSH1 0x4 PUSH2 0x18F JUMP JUMPDEST PUSH2 0xC2 JUMP JUMPDEST STOP JUMPDEST PUSH2 0x77 PUSH2 0x87 CALLDATASIZE PUSH1 0x4 PUSH2 0x1FB JUMP JUMPDEST PUSH2 0x101 JUMP JUMPDEST PUSH2 0x77 PUSH2 0x9A CALLDATASIZE PUSH1 0x4 PUSH2 0x21B JUMP JUMPDEST POP JUMP JUMPDEST PUSH2 0x77 PUSH2 0xAB CALLDATASIZE PUSH1 0x4 PUSH2 0x2CF JUMP JUMPDEST PUSH2 0x141 JUMP JUMPDEST PUSH2 0x77 PUSH2 0xBE CALLDATASIZE PUSH1 0x4 PUSH2 0x35C JUMP JUMPDEST POP POP JUMP JUMPDEST PUSH32 0x64F0E70C68D62EC18F2A0117676D3C31E8EEDF2760BE0AEA3B5A92811347B8C5 DUP3 DUP3 CALLER PUSH1 0x40 MLOAD PUSH2 0xF5 SWAP4 SWAP3 SWAP2 SWAP1 PUSH2 0x3B9 JUMP JUMPDEST PUSH1 0x40 MLOAD DUP1 SWAP2 SUB SWAP1 LOG1 POP POP JUMP JUMPDEST PUSH1 0x40 DUP1 MLOAD DUP4 DUP2 MSTORE PUSH1 0x20 DUP2 ADD DUP4 SWAP1 MSTORE CALLER SWAP2 DUP2 ADD SWAP2 SWAP1 SWAP2 MSTORE PUSH32 0x8E5CD680487093DA8928D8E8C55EF924615F4518218420DDB0383DF65FE541CB SWAP1 PUSH1 0x60 ADD PUSH2 0xF5 JUMP JUMPDEST PUSH32 0x96F8000491529838B4F00CEFF470989ADBE416271D25B680671D1173F110A3FA DUP8 DUP8 DUP8 DUP8 DUP8 DUP8 DUP8 CALLER PUSH1 0x40 MLOAD PUSH2 0x17E SWAP9 SWAP8 SWAP7 SWAP6 SWAP5 SWAP4 SWAP3 SWAP2 SWAP1 PUSH2 0x427 JUMP JUMPDEST PUSH1 0x40 MLOAD DUP1 SWAP2 SUB SWAP1 LOG1 POP POP POP POP POP POP POP JUMP JUMPDEST PUSH0 DUP1 PUSH1 0x20 DUP4 DUP6 SUB SLT ISZERO PUSH2 0x1A0 JUMPI PUSH0 DUP1 REVERT JUMPDEST DUP3 CALLDATALOAD PUSH8 0xFFFFFFFFFFFFFFFF DUP1 DUP3 GT ISZERO PUSH2 0x1B7 JUMPI PUSH0 DUP1 REVERT JUMPDEST DUP2 DUP6 ADD SWAP2 POP DUP6 PUSH1 0x1F DUP4 ADD SLT PUSH2 0x1CA JUMPI PUSH0 DUP1 REVERT JUMPDEST DUP2 CALLDATALOAD DUP2 DUP2 GT ISZERO PUSH2 0x1D8 JUMPI PUSH0 DUP1 REVERT JUMPDEST DUP7 PUSH1 0x20 DUP3 DUP6 ADD ADD GT ISZERO PUSH2 0x1E9 JUMPI PUSH0 DUP1 REVERT JUMPDEST PUSH1 0x20 SWAP3 SWAP1 SWAP3 ADD SWAP7 SWAP2 SWAP6 POP SWAP1 SWAP4 POP POP POP POP JUMP JUMPDEST PUSH0 DUP1 PUSH1 0x40 DUP4 DUP6 SUB SLT ISZERO PUSH2 0x20C JUMPI PUSH0 DUP1 REVERT JUMPDEST POP POP DUP1 CALLDATALOAD SWAP3 PUSH1 0x20 SWAP1 SWAP2 ADD CALLDATALOAD SWAP2 POP JUMP JUMPDEST PUSH0 PUSH1 0x20 DUP3 DUP5 SUB SLT ISZERO PUSH2 0x22B JUMPI PUSH0 DUP1 REVERT JUMPDEST POP CALLDATALOAD SWAP2 SWAP1 POP JUMP JUMPDEST PUSH4 0x4E487B71 PUSH1 0xE0 SHL PUSH0 MSTORE PUSH1 0x41 PUSH1 0x4 MSTORE PUSH1 0x24 PUSH0 REVERT JUMPDEST PUSH0 DUP3 PUSH1 0x1F DUP4 ADD SLT PUSH2 0x255 JUMPI PUSH0 DUP1 REVERT JUMPDEST DUP2 CALLDATALOAD PUSH8 0xFFFFFFFFFFFFFFFF DUP1 DUP3 GT ISZERO PUSH2 0x270 JUMPI PUSH2 0x270 PUSH2 0x232 JUMP JUMPDEST PUSH1 0x40 MLOAD PUSH1 0x1F DUP4 ADD PUSH1 0x1F NOT SWAP1 DUP2 AND PUSH1 0x3F ADD AND DUP2 ADD SWAP1 DUP3 DUP3 GT DUP2 DUP4 LT OR ISZERO PUSH2 0x298 JUMPI PUSH2 0x298 PUSH2 0x232 JUMP JUMPDEST DUP2 PUSH1 0x40 MSTORE DUP4 DUP2 MSTORE DUP7 PUSH1 0x20 DUP6 DUP9 ADD ADD GT ISZERO PUSH2 0x2B0 JUMPI PUSH0 DUP1 REVERT JUMPDEST DUP4 PUSH1 0x20 DUP8 ADD PUSH1 0x20 DUP4 ADD CALLDATACOPY PUSH0 PUSH1 0x20 DUP6 DUP4 ADD ADD MSTORE DUP1 SWAP5 POP POP POP POP POP SWAP3 SWAP2 POP POP JUMP JUMPDEST PUSH0 DUP1 PUSH0 DUP1 PUSH0 DUP1 PUSH0 PUSH1 0xE0 DUP9 DUP11 SUB SLT ISZERO PUSH2 0x2E5 JUMPI PUSH0 DUP1 REVERT JUMPDEST DUP8 CALLDATALOAD SWAP7 POP PUSH1 0x20 DUP9 ADD CALLDATALOAD SWAP6 POP PUSH1 0x40 DUP9 ADD CALLDATALOAD SWAP5 POP PUSH1 0x60 DUP9 ADD CALLDATALOAD SWAP4 POP PUSH1 0x80 DUP9 ADD CALLDATALOAD PUSH8 0xFFFFFFFFFFFFFFFF DUP1 DUP3 GT ISZERO PUSH2 0x318 JUMPI PUSH0 DUP1 REVERT JUMPDEST PUSH2 0x324 DUP12 DUP4 DUP13 ADD PUSH2 0x246 JUMP JUMPDEST SWAP5 POP PUSH1 0xA0 DUP11 ADD CALLDATALOAD SWAP2 POP DUP1 DUP3 GT ISZERO PUSH2 0x339 JUMPI PUSH0 DUP1 REVERT JUMPDEST POP PUSH2 0x346 DUP11 DUP3 DUP12 ADD PUSH2 0x246 JUMP JUMPDEST SWAP3 POP POP PUSH1 0xC0 DUP9 ADD CALLDATALOAD SWAP1 POP SWAP3 SWAP6 SWAP9 SWAP2 SWAP5 SWAP8 POP SWAP3 SWAP6 POP JUMP JUMPDEST PUSH0 DUP1 PUSH1 0x20 DUP4 DUP6 SUB SLT ISZERO PUSH2 0x36D JUMPI PUSH0 DUP1 REVERT JUMPDEST DUP3 CALLDATALOAD PUSH8 0xFFFFFFFFFFFFFFFF DUP1 DUP3 GT ISZERO PUSH2 0x384 JUMPI PUSH0 DUP1 REVERT JUMPDEST DUP2 DUP6 ADD SWAP2 POP DUP6 PUSH1 0x1F DUP4 ADD SLT PUSH2 0x397 JUMPI PUSH0 DUP1 REVERT JUMPDEST DUP2 CALLDATALOAD DUP2 DUP2 GT ISZERO PUSH2 0x3A5 JUMPI PUSH0 DUP1 REVERT JUMPDEST DUP7 PUSH1 0x20 DUP3 PUSH1 0x5 SHL DUP6 ADD ADD GT ISZERO PUSH2 0x1E9 JUMPI PUSH0 DUP1 REVERT JUMPDEST PUSH1 0x40 DUP2 MSTORE DUP3 PUSH1 0x40 DUP3 ADD MSTORE DUP3 DUP5 PUSH1 0x60 DUP4 ADD CALLDATACOPY PUSH0 PUSH1 0x60 DUP5 DUP4 ADD DUP2 ADD SWAP2 SWAP1 SWAP2 MSTORE PUSH1 0x1 PUSH1 0x1 PUSH1 0xA0 SHL SUB SWAP3 SWAP1 SWAP3 AND PUSH1 0x20 DUP3 ADD MSTORE PUSH1 0x1F SWAP1 SWAP3 ADD PUSH1 0x1F NOT AND SWAP1 SWAP2 ADD ADD SWAP2 SWAP1 POP JUMP JUMPDEST PUSH0 DUP2 MLOAD DUP1 DUP5 MSTORE DUP1 PUSH1 0x20 DUP5 ADD PUSH1 0x20 DUP7 ADD MCOPY PUSH0 PUSH1 0x20 DUP3 DUP7 ADD ADD MSTORE PUSH1 0x20 PUSH1 0x1F NOT PUSH1 0x1F DUP4 ADD AND DUP6 ADD ADD SWAP2 POP POP SWAP3 SWAP2 POP POP JUMP JUMPDEST PUSH0 PUSH2 0x100 DUP11 DUP4 MSTORE DUP10 PUSH1 0x20 DUP5 ADD MSTORE DUP9 PUSH1 0x40 DUP5 ADD MSTORE DUP8 PUSH1 0x60 DUP5 ADD MSTORE DUP1 PUSH1 0x80 DUP5 ADD MSTORE PUSH2 0x452 DUP2 DUP5 ADD DUP9 PUSH2 0x3F9 JUMP JUMPDEST SWAP1 POP DUP3 DUP2 SUB PUSH1 0xA0 DUP5 ADD MSTORE PUSH2 0x466 DUP2 DUP8 PUSH2 0x3F9 JUMP JUMPDEST PUSH1 0xC0 DUP5 ADD SWAP6 SWAP1 SWAP6 MSTORE POP POP PUSH1 0x1 PUSH1 0x1 PUSH1 0xA0 SHL SUB SWAP2 SWAP1 SWAP2 AND PUSH1 0xE0 SWAP1 SWAP2 ADD MSTORE SWAP7 SWAP6 POP POP POP POP POP POP JUMP INVALID LOG2 PUSH5 0x6970667358 0x22 SLT KECCAK256 DUP6 PUSH19 0xCCEA1F6F0D286171426D92A5B5E1D680DFA7A0 PUSH30 0x71668AB819EB13343CC264736F6C63430008190033000000000000000000 "
		},
		"gasEstimates": {
			"creation": {
				"codeDepositCost": "243600",
				"executionCost": "285",
				"totalCost": "243885"
			},
			"external": {
				"_boundingBox(int256,int256,int256,int256,string,string,int256)": "infinite",
				"_bounding_box_callback(uint256[])": "483",
				"_geocode(string)": "infinite",
				"_geocode_callback(uint256)": "275",
				"_reverse_geocode(int256,int256)": "1877",
				"_reverse_geocode_callback(uint256)": "231"
			}
		},
		"methodIdentifiers": {
			"_boundingBox(int256,int256,int256,int256,string,string,int256)": "8c16e399",
			"_bounding_box_callback(uint256[])": "b3402908",
			"_geocode(string)": "0f4081a9",
			"_geocode_callback(uint256)": "96cf0f90",
			"_reverse_geocode(int256,int256)": "172e277e",
			"_reverse_geocode_callback(uint256)": "42b09cf4"
		}
	},
	"abi": [
		{
			"anonymous": false,
			"inputs": [
				{
					"indexed": false,
					"internalType": "int256",
					"name": "xmin",
					"type": "int256"
				},
				{
					"indexed": false,
					"internalType": "int256",
					"name": "ymin",
					"type": "int256"
				},
				{
					"indexed": false,
					"internalType": "int256",
					"name": "xmax",
					"type": "int256"
				},
				{
					"indexed": false,
					"internalType": "int256",
					"name": "ymax",
					"type": "int256"
				},
				{
					"indexed": false,
					"internalType": "string",
					"name": "key",
					"type": "string"
				},
				{
					"indexed": false,
					"internalType": "string",
					"name": "val",
					"type": "string"
				},
				{
					"indexed": false,
					"internalType": "int256",
					"name": "limit",
					"type": "int256"
				},
				{
					"indexed": false,
					"internalType": "address",
					"name": "caller",
					"type": "address"
				}
			],
			"name": "BoundingBox",
			"type": "event"
		},
		{
			"anonymous": false,
			"inputs": [
				{
					"indexed": false,
					"internalType": "string",
					"name": "location",
					"type": "string"
				},
				{
					"indexed": false,
					"internalType": "address",
					"name": "caller",
					"type": "address"
				}
			],
			"name": "Geocode",
			"type": "event"
		},
		{
			"anonymous": false,
			"inputs": [
				{
					"indexed": false,
					"internalType": "int256",
					"name": "lat",
					"type": "int256"
				},
				{
					"indexed": false,
					"internalType": "int256",
					"name": "lon",
					"type": "int256"
				},
				{
					"indexed": false,
					"internalType": "address",
					"name": "caller",
					"type": "address"
				}
			],
			"name": "ReverseGeocode",
			"type": "event"
		},
		{
			"inputs": [
				{
					"internalType": "int256",
					"name": "xmin",
					"type": "int256"
				},
				{
					"internalType": "int256",
					"name": "ymin",
					"type": "int256"
				},
				{
					"internalType": "int256",
					"name": "xmax",
					"type": "int256"
				},
				{
					"internalType": "int256",
					"name": "ymax",
					"type": "int256"
				},
				{
					"internalType": "string",
					"name": "key",
					"type": "string"
				},
				{
					"internalType": "string",
					"name": "val",
					"type": "string"
				},
				{
					"internalType": "int256",
					"name": "limit",
					"type": "int256"
				}
			],
			"name": "_boundingBox",
			"outputs": [],
			"stateMutability": "nonpayable",
			"type": "function"
		},
		{
			"inputs": [
				{
					"internalType": "uint256[]",
					"name": "nodes",
					"type": "uint256[]"
				}
			],
			"name": "_bounding_box_callback",
			"outputs": [],
			"stateMutability": "nonpayable",
			"type": "function"
		},
		{
			"inputs": [
				{
					"internalType": "string",
					"name": "location",
					"type": "string"
				}
			],
			"name": "_geocode",
			"outputs": [],
			"stateMutability": "nonpayable",
			"type": "function"
		},
		{
			"inputs": [
				{
					"internalType": "uint256",
					"name": "node",
					"type": "uint256"
				}
			],
			"name": "_geocode_callback",
			"outputs": [],
			"stateMutability": "nonpayable",
			"type": "function"
		},
		{
			"inputs": [
				{
					"internalType": "int256",
					"name": "lat",
					"type": "int256"
				},
				{
					"internalType": "int256",
					"name": "lon",
					"type": "int256"
				}
			],
			"name": "_reverse_geocode",
			"outputs": [],
			"stateMutability": "nonpayable",
			"type": "function"
		},
		{
			"inputs": [
				{
					"internalType": "uint256",
					"name": "node",
					"type": "uint256"
				}
			],
			"name": "_reverse_geocode_callback",
			"outputs": [],
			"stateMutability": "nonpayable",
			"type": "function"
		}
	]
}