{
	"data": {
		"bytecode": {
			"linkReferences": {},
			"object": "6080604052348015600e575f80fd5b5061081a8061001c5f395ff3fe608060405234801561000f575f80fd5b5060043610610060575f3560e01c80630f4081a914610064578063172e277e1461008057806342b09cf41461009c5780638c16e399146100b857806396cf0f90146100d4578063b3402908146100f0575b5f80fd5b61007e60048036038101906100799190610254565b61010c565b005b61009a600480360381019061009591906102d2565b61014b565b005b6100b660048036038101906100b19190610343565b61018a565b005b6100d260048036038101906100cd91906104a6565b61018d565b005b6100ee60048036038101906100e99190610343565b6101db565b005b61010a600480360381019061010591906105d0565b6101de565b005b7f64f0e70c68d62ec18f2a0117676d3c31e8eedf2760be0aea3b5a92811347b8c582823060405161013f93929190610696565b60405180910390a15050565b7f8e5cd680487093da8928d8e8c55ef924615f4518218420ddb0383df65fe541cb82823060405161017e939291906106d5565b60405180910390a15050565b50565b7f96f8000491529838b4f00ceff470989adbe416271d25b680671d1173f110a3fa87878787878787306040516101ca98979695949392919061075a565b60405180910390a150505050505050565b50565b5050565b5f604051905090565b5f80fd5b5f80fd5b5f80fd5b5f80fd5b5f80fd5b5f8083601f840112610214576102136101f3565b5b8235905067ffffffffffffffff811115610231576102306101f7565b5b60208301915083600182028301111561024d5761024c6101fb565b5b9250929050565b5f806020838503121561026a576102696101eb565b5b5f83013567ffffffffffffffff811115610287576102866101ef565b5b610293858286016101ff565b92509250509250929050565b5f819050919050565b6102b18161029f565b81146102bb575f80fd5b50565b5f813590506102cc816102a8565b92915050565b5f80604083850312156102e8576102e76101eb565b5b5f6102f5858286016102be565b9250506020610306858286016102be565b9150509250929050565b5f819050919050565b61032281610310565b811461032c575f80fd5b50565b5f8135905061033d81610319565b92915050565b5f60208284031215610358576103576101eb565b5b5f6103658482850161032f565b91505092915050565b5f80fd5b5f601f19601f8301169050919050565b7f4e487b71000000000000000000000000000000000000000000000000000000005f52604160045260245ffd5b6103b882610372565b810181811067ffffffffffffffff821117156103d7576103d6610382565b5b80604052505050565b5f6103e96101e2565b90506103f582826103af565b919050565b5f67ffffffffffffffff82111561041457610413610382565b5b61041d82610372565b9050602081019050919050565b828183375f83830152505050565b5f61044a610445846103fa565b6103e0565b9050828152602081018484840111156104665761046561036e565b5b61047184828561042a565b509392505050565b5f82601f83011261048d5761048c6101f3565b5b813561049d848260208601610438565b91505092915050565b5f805f805f805f60e0888a0312156104c1576104c06101eb565b5b5f6104ce8a828b016102be565b97505060206104df8a828b016102be565b96505060406104f08a828b016102be565b95505060606105018a828b016102be565b945050608088013567ffffffffffffffff811115610522576105216101ef565b5b61052e8a828b01610479565b93505060a088013567ffffffffffffffff81111561054f5761054e6101ef565b5b61055b8a828b01610479565b92505060c061056c8a828b016102be565b91505092959891949750929550565b5f8083601f8401126105905761058f6101f3565b5b8235905067ffffffffffffffff8111156105ad576105ac6101f7565b5b6020830191508360208202830111156105c9576105c86101fb565b5b9250929050565b5f80602083850312156105e6576105e56101eb565b5b5f83013567ffffffffffffffff811115610603576106026101ef565b5b61060f8582860161057b565b92509250509250929050565b5f82825260208201905092915050565b5f610636838561061b565b935061064383858461042a565b61064c83610372565b840190509392505050565b5f73ffffffffffffffffffffffffffffffffffffffff82169050919050565b5f61068082610657565b9050919050565b61069081610676565b82525050565b5f6040820190508181035f8301526106af81858761062b565b90506106be6020830184610687565b949350505050565b6106cf8161029f565b82525050565b5f6060820190506106e85f8301866106c6565b6106f560208301856106c6565b6107026040830184610687565b949350505050565b5f81519050919050565b8281835e5f83830152505050565b5f61072c8261070a565b610736818561061b565b9350610746818560208601610714565b61074f81610372565b840191505092915050565b5f6101008201905061076e5f83018b6106c6565b61077b602083018a6106c6565b61078860408301896106c6565b61079560608301886106c6565b81810360808301526107a78187610722565b905081810360a08301526107bb8186610722565b90506107ca60c08301856106c6565b6107d760e0830184610687565b999850505050505050505056fea2646970667358221220a3dc7507124d8daf13a2cc72176e90dc5d70d1e4e89f8d75ba3c545f44add7b964736f6c63430008190033",
			"opcodes": "PUSH1 0x80 PUSH1 0x40 MSTORE CALLVALUE DUP1 ISZERO PUSH1 0xE JUMPI PUSH0 DUP1 REVERT JUMPDEST POP PUSH2 0x81A DUP1 PUSH2 0x1C PUSH0 CODECOPY PUSH0 RETURN INVALID PUSH1 0x80 PUSH1 0x40 MSTORE CALLVALUE DUP1 ISZERO PUSH2 0xF JUMPI PUSH0 DUP1 REVERT JUMPDEST POP PUSH1 0x4 CALLDATASIZE LT PUSH2 0x60 JUMPI PUSH0 CALLDATALOAD PUSH1 0xE0 SHR DUP1 PUSH4 0xF4081A9 EQ PUSH2 0x64 JUMPI DUP1 PUSH4 0x172E277E EQ PUSH2 0x80 JUMPI DUP1 PUSH4 0x42B09CF4 EQ PUSH2 0x9C JUMPI DUP1 PUSH4 0x8C16E399 EQ PUSH2 0xB8 JUMPI DUP1 PUSH4 0x96CF0F90 EQ PUSH2 0xD4 JUMPI DUP1 PUSH4 0xB3402908 EQ PUSH2 0xF0 JUMPI JUMPDEST PUSH0 DUP1 REVERT JUMPDEST PUSH2 0x7E PUSH1 0x4 DUP1 CALLDATASIZE SUB DUP2 ADD SWAP1 PUSH2 0x79 SWAP2 SWAP1 PUSH2 0x254 JUMP JUMPDEST PUSH2 0x10C JUMP JUMPDEST STOP JUMPDEST PUSH2 0x9A PUSH1 0x4 DUP1 CALLDATASIZE SUB DUP2 ADD SWAP1 PUSH2 0x95 SWAP2 SWAP1 PUSH2 0x2D2 JUMP JUMPDEST PUSH2 0x14B JUMP JUMPDEST STOP JUMPDEST PUSH2 0xB6 PUSH1 0x4 DUP1 CALLDATASIZE SUB DUP2 ADD SWAP1 PUSH2 0xB1 SWAP2 SWAP1 PUSH2 0x343 JUMP JUMPDEST PUSH2 0x18A JUMP JUMPDEST STOP JUMPDEST PUSH2 0xD2 PUSH1 0x4 DUP1 CALLDATASIZE SUB DUP2 ADD SWAP1 PUSH2 0xCD SWAP2 SWAP1 PUSH2 0x4A6 JUMP JUMPDEST PUSH2 0x18D JUMP JUMPDEST STOP JUMPDEST PUSH2 0xEE PUSH1 0x4 DUP1 CALLDATASIZE SUB DUP2 ADD SWAP1 PUSH2 0xE9 SWAP2 SWAP1 PUSH2 0x343 JUMP JUMPDEST PUSH2 0x1DB JUMP JUMPDEST STOP JUMPDEST PUSH2 0x10A PUSH1 0x4 DUP1 CALLDATASIZE SUB DUP2 ADD SWAP1 PUSH2 0x105 SWAP2 SWAP1 PUSH2 0x5D0 JUMP JUMPDEST PUSH2 0x1DE JUMP JUMPDEST STOP JUMPDEST PUSH32 0x64F0E70C68D62EC18F2A0117676D3C31E8EEDF2760BE0AEA3B5A92811347B8C5 DUP3 DUP3 ADDRESS PUSH1 0x40 MLOAD PUSH2 0x13F SWAP4 SWAP3 SWAP2 SWAP1 PUSH2 0x696 JUMP JUMPDEST PUSH1 0x40 MLOAD DUP1 SWAP2 SUB SWAP1 LOG1 POP POP JUMP JUMPDEST PUSH32 0x8E5CD680487093DA8928D8E8C55EF924615F4518218420DDB0383DF65FE541CB DUP3 DUP3 ADDRESS PUSH1 0x40 MLOAD PUSH2 0x17E SWAP4 SWAP3 SWAP2 SWAP1 PUSH2 0x6D5 JUMP JUMPDEST PUSH1 0x40 MLOAD DUP1 SWAP2 SUB SWAP1 LOG1 POP POP JUMP JUMPDEST POP JUMP JUMPDEST PUSH32 0x96F8000491529838B4F00CEFF470989ADBE416271D25B680671D1173F110A3FA DUP8 DUP8 DUP8 DUP8 DUP8 DUP8 DUP8 ADDRESS PUSH1 0x40 MLOAD PUSH2 0x1CA SWAP9 SWAP8 SWAP7 SWAP6 SWAP5 SWAP4 SWAP3 SWAP2 SWAP1 PUSH2 0x75A JUMP JUMPDEST PUSH1 0x40 MLOAD DUP1 SWAP2 SUB SWAP1 LOG1 POP POP POP POP POP POP POP JUMP JUMPDEST POP JUMP JUMPDEST POP POP JUMP JUMPDEST PUSH0 PUSH1 0x40 MLOAD SWAP1 POP SWAP1 JUMP JUMPDEST PUSH0 DUP1 REVERT JUMPDEST PUSH0 DUP1 REVERT JUMPDEST PUSH0 DUP1 REVERT JUMPDEST PUSH0 DUP1 REVERT JUMPDEST PUSH0 DUP1 REVERT JUMPDEST PUSH0 DUP1 DUP4 PUSH1 0x1F DUP5 ADD SLT PUSH2 0x214 JUMPI PUSH2 0x213 PUSH2 0x1F3 JUMP JUMPDEST JUMPDEST DUP3 CALLDATALOAD SWAP1 POP PUSH8 0xFFFFFFFFFFFFFFFF DUP2 GT ISZERO PUSH2 0x231 JUMPI PUSH2 0x230 PUSH2 0x1F7 JUMP JUMPDEST JUMPDEST PUSH1 0x20 DUP4 ADD SWAP2 POP DUP4 PUSH1 0x1 DUP3 MUL DUP4 ADD GT ISZERO PUSH2 0x24D JUMPI PUSH2 0x24C PUSH2 0x1FB JUMP JUMPDEST JUMPDEST SWAP3 POP SWAP3 SWAP1 POP JUMP JUMPDEST PUSH0 DUP1 PUSH1 0x20 DUP4 DUP6 SUB SLT ISZERO PUSH2 0x26A JUMPI PUSH2 0x269 PUSH2 0x1EB JUMP JUMPDEST JUMPDEST PUSH0 DUP4 ADD CALLDATALOAD PUSH8 0xFFFFFFFFFFFFFFFF DUP2 GT ISZERO PUSH2 0x287 JUMPI PUSH2 0x286 PUSH2 0x1EF JUMP JUMPDEST JUMPDEST PUSH2 0x293 DUP6 DUP3 DUP7 ADD PUSH2 0x1FF JUMP JUMPDEST SWAP3 POP SWAP3 POP POP SWAP3 POP SWAP3 SWAP1 POP JUMP JUMPDEST PUSH0 DUP2 SWAP1 POP SWAP2 SWAP1 POP JUMP JUMPDEST PUSH2 0x2B1 DUP2 PUSH2 0x29F JUMP JUMPDEST DUP2 EQ PUSH2 0x2BB JUMPI PUSH0 DUP1 REVERT JUMPDEST POP JUMP JUMPDEST PUSH0 DUP2 CALLDATALOAD SWAP1 POP PUSH2 0x2CC DUP2 PUSH2 0x2A8 JUMP JUMPDEST SWAP3 SWAP2 POP POP JUMP JUMPDEST PUSH0 DUP1 PUSH1 0x40 DUP4 DUP6 SUB SLT ISZERO PUSH2 0x2E8 JUMPI PUSH2 0x2E7 PUSH2 0x1EB JUMP JUMPDEST JUMPDEST PUSH0 PUSH2 0x2F5 DUP6 DUP3 DUP7 ADD PUSH2 0x2BE JUMP JUMPDEST SWAP3 POP POP PUSH1 0x20 PUSH2 0x306 DUP6 DUP3 DUP7 ADD PUSH2 0x2BE JUMP JUMPDEST SWAP2 POP POP SWAP3 POP SWAP3 SWAP1 POP JUMP JUMPDEST PUSH0 DUP2 SWAP1 POP SWAP2 SWAP1 POP JUMP JUMPDEST PUSH2 0x322 DUP2 PUSH2 0x310 JUMP JUMPDEST DUP2 EQ PUSH2 0x32C JUMPI PUSH0 DUP1 REVERT JUMPDEST POP JUMP JUMPDEST PUSH0 DUP2 CALLDATALOAD SWAP1 POP PUSH2 0x33D DUP2 PUSH2 0x319 JUMP JUMPDEST SWAP3 SWAP2 POP POP JUMP JUMPDEST PUSH0 PUSH1 0x20 DUP3 DUP5 SUB SLT ISZERO PUSH2 0x358 JUMPI PUSH2 0x357 PUSH2 0x1EB JUMP JUMPDEST JUMPDEST PUSH0 PUSH2 0x365 DUP5 DUP3 DUP6 ADD PUSH2 0x32F JUMP JUMPDEST SWAP2 POP POP SWAP3 SWAP2 POP POP JUMP JUMPDEST PUSH0 DUP1 REVERT JUMPDEST PUSH0 PUSH1 0x1F NOT PUSH1 0x1F DUP4 ADD AND SWAP1 POP SWAP2 SWAP1 POP JUMP JUMPDEST PUSH32 0x4E487B7100000000000000000000000000000000000000000000000000000000 PUSH0 MSTORE PUSH1 0x41 PUSH1 0x4 MSTORE PUSH1 0x24 PUSH0 REVERT JUMPDEST PUSH2 0x3B8 DUP3 PUSH2 0x372 JUMP JUMPDEST DUP2 ADD DUP2 DUP2 LT PUSH8 0xFFFFFFFFFFFFFFFF DUP3 GT OR ISZERO PUSH2 0x3D7 JUMPI PUSH2 0x3D6 PUSH2 0x382 JUMP JUMPDEST JUMPDEST DUP1 PUSH1 0x40 MSTORE POP POP POP JUMP JUMPDEST PUSH0 PUSH2 0x3E9 PUSH2 0x1E2 JUMP JUMPDEST SWAP1 POP PUSH2 0x3F5 DUP3 DUP3 PUSH2 0x3AF JUMP JUMPDEST SWAP2 SWAP1 POP JUMP JUMPDEST PUSH0 PUSH8 0xFFFFFFFFFFFFFFFF DUP3 GT ISZERO PUSH2 0x414 JUMPI PUSH2 0x413 PUSH2 0x382 JUMP JUMPDEST JUMPDEST PUSH2 0x41D DUP3 PUSH2 0x372 JUMP JUMPDEST SWAP1 POP PUSH1 0x20 DUP2 ADD SWAP1 POP SWAP2 SWAP1 POP JUMP JUMPDEST DUP3 DUP2 DUP4 CALLDATACOPY PUSH0 DUP4 DUP4 ADD MSTORE POP POP POP JUMP JUMPDEST PUSH0 PUSH2 0x44A PUSH2 0x445 DUP5 PUSH2 0x3FA JUMP JUMPDEST PUSH2 0x3E0 JUMP JUMPDEST SWAP1 POP DUP3 DUP2 MSTORE PUSH1 0x20 DUP2 ADD DUP5 DUP5 DUP5 ADD GT ISZERO PUSH2 0x466 JUMPI PUSH2 0x465 PUSH2 0x36E JUMP JUMPDEST JUMPDEST PUSH2 0x471 DUP5 DUP3 DUP6 PUSH2 0x42A JUMP JUMPDEST POP SWAP4 SWAP3 POP POP POP JUMP JUMPDEST PUSH0 DUP3 PUSH1 0x1F DUP4 ADD SLT PUSH2 0x48D JUMPI PUSH2 0x48C PUSH2 0x1F3 JUMP JUMPDEST JUMPDEST DUP2 CALLDATALOAD PUSH2 0x49D DUP5 DUP3 PUSH1 0x20 DUP7 ADD PUSH2 0x438 JUMP JUMPDEST SWAP2 POP POP SWAP3 SWAP2 POP POP JUMP JUMPDEST PUSH0 DUP1 PUSH0 DUP1 PUSH0 DUP1 PUSH0 PUSH1 0xE0 DUP9 DUP11 SUB SLT ISZERO PUSH2 0x4C1 JUMPI PUSH2 0x4C0 PUSH2 0x1EB JUMP JUMPDEST JUMPDEST PUSH0 PUSH2 0x4CE DUP11 DUP3 DUP12 ADD PUSH2 0x2BE JUMP JUMPDEST SWAP8 POP POP PUSH1 0x20 PUSH2 0x4DF DUP11 DUP3 DUP12 ADD PUSH2 0x2BE JUMP JUMPDEST SWAP7 POP POP PUSH1 0x40 PUSH2 0x4F0 DUP11 DUP3 DUP12 ADD PUSH2 0x2BE JUMP JUMPDEST SWAP6 POP POP PUSH1 0x60 PUSH2 0x501 DUP11 DUP3 DUP12 ADD PUSH2 0x2BE JUMP JUMPDEST SWAP5 POP POP PUSH1 0x80 DUP9 ADD CALLDATALOAD PUSH8 0xFFFFFFFFFFFFFFFF DUP2 GT ISZERO PUSH2 0x522 JUMPI PUSH2 0x521 PUSH2 0x1EF JUMP JUMPDEST JUMPDEST PUSH2 0x52E DUP11 DUP3 DUP12 ADD PUSH2 0x479 JUMP JUMPDEST SWAP4 POP POP PUSH1 0xA0 DUP9 ADD CALLDATALOAD PUSH8 0xFFFFFFFFFFFFFFFF DUP2 GT ISZERO PUSH2 0x54F JUMPI PUSH2 0x54E PUSH2 0x1EF JUMP JUMPDEST JUMPDEST PUSH2 0x55B DUP11 DUP3 DUP12 ADD PUSH2 0x479 JUMP JUMPDEST SWAP3 POP POP PUSH1 0xC0 PUSH2 0x56C DUP11 DUP3 DUP12 ADD PUSH2 0x2BE JUMP JUMPDEST SWAP2 POP POP SWAP3 SWAP6 SWAP9 SWAP2 SWAP5 SWAP8 POP SWAP3 SWAP6 POP JUMP JUMPDEST PUSH0 DUP1 DUP4 PUSH1 0x1F DUP5 ADD SLT PUSH2 0x590 JUMPI PUSH2 0x58F PUSH2 0x1F3 JUMP JUMPDEST JUMPDEST DUP3 CALLDATALOAD SWAP1 POP PUSH8 0xFFFFFFFFFFFFFFFF DUP2 GT ISZERO PUSH2 0x5AD JUMPI PUSH2 0x5AC PUSH2 0x1F7 JUMP JUMPDEST JUMPDEST PUSH1 0x20 DUP4 ADD SWAP2 POP DUP4 PUSH1 0x20 DUP3 MUL DUP4 ADD GT ISZERO PUSH2 0x5C9 JUMPI PUSH2 0x5C8 PUSH2 0x1FB JUMP JUMPDEST JUMPDEST SWAP3 POP SWAP3 SWAP1 POP JUMP JUMPDEST PUSH0 DUP1 PUSH1 0x20 DUP4 DUP6 SUB SLT ISZERO PUSH2 0x5E6 JUMPI PUSH2 0x5E5 PUSH2 0x1EB JUMP JUMPDEST JUMPDEST PUSH0 DUP4 ADD CALLDATALOAD PUSH8 0xFFFFFFFFFFFFFFFF DUP2 GT ISZERO PUSH2 0x603 JUMPI PUSH2 0x602 PUSH2 0x1EF JUMP JUMPDEST JUMPDEST PUSH2 0x60F DUP6 DUP3 DUP7 ADD PUSH2 0x57B JUMP JUMPDEST SWAP3 POP SWAP3 POP POP SWAP3 POP SWAP3 SWAP1 POP JUMP JUMPDEST PUSH0 DUP3 DUP3 MSTORE PUSH1 0x20 DUP3 ADD SWAP1 POP SWAP3 SWAP2 POP POP JUMP JUMPDEST PUSH0 PUSH2 0x636 DUP4 DUP6 PUSH2 0x61B JUMP JUMPDEST SWAP4 POP PUSH2 0x643 DUP4 DUP6 DUP5 PUSH2 0x42A JUMP JUMPDEST PUSH2 0x64C DUP4 PUSH2 0x372 JUMP JUMPDEST DUP5 ADD SWAP1 POP SWAP4 SWAP3 POP POP POP JUMP JUMPDEST PUSH0 PUSH20 0xFFFFFFFFFFFFFFFFFFFFFFFFFFFFFFFFFFFFFFFF DUP3 AND SWAP1 POP SWAP2 SWAP1 POP JUMP JUMPDEST PUSH0 PUSH2 0x680 DUP3 PUSH2 0x657 JUMP JUMPDEST SWAP1 POP SWAP2 SWAP1 POP JUMP JUMPDEST PUSH2 0x690 DUP2 PUSH2 0x676 JUMP JUMPDEST DUP3 MSTORE POP POP JUMP JUMPDEST PUSH0 PUSH1 0x40 DUP3 ADD SWAP1 POP DUP2 DUP2 SUB PUSH0 DUP4 ADD MSTORE PUSH2 0x6AF DUP2 DUP6 DUP8 PUSH2 0x62B JUMP JUMPDEST SWAP1 POP PUSH2 0x6BE PUSH1 0x20 DUP4 ADD DUP5 PUSH2 0x687 JUMP JUMPDEST SWAP5 SWAP4 POP POP POP POP JUMP JUMPDEST PUSH2 0x6CF DUP2 PUSH2 0x29F JUMP JUMPDEST DUP3 MSTORE POP POP JUMP JUMPDEST PUSH0 PUSH1 0x60 DUP3 ADD SWAP1 POP PUSH2 0x6E8 PUSH0 DUP4 ADD DUP7 PUSH2 0x6C6 JUMP JUMPDEST PUSH2 0x6F5 PUSH1 0x20 DUP4 ADD DUP6 PUSH2 0x6C6 JUMP JUMPDEST PUSH2 0x702 PUSH1 0x40 DUP4 ADD DUP5 PUSH2 0x687 JUMP JUMPDEST SWAP5 SWAP4 POP POP POP POP JUMP JUMPDEST PUSH0 DUP2 MLOAD SWAP1 POP SWAP2 SWAP1 POP JUMP JUMPDEST DUP3 DUP2 DUP4 MCOPY PUSH0 DUP4 DUP4 ADD MSTORE POP POP POP JUMP JUMPDEST PUSH0 PUSH2 0x72C DUP3 PUSH2 0x70A JUMP JUMPDEST PUSH2 0x736 DUP2 DUP6 PUSH2 0x61B JUMP JUMPDEST SWAP4 POP PUSH2 0x746 DUP2 DUP6 PUSH1 0x20 DUP7 ADD PUSH2 0x714 JUMP JUMPDEST PUSH2 0x74F DUP2 PUSH2 0x372 JUMP JUMPDEST DUP5 ADD SWAP2 POP POP SWAP3 SWAP2 POP POP JUMP JUMPDEST PUSH0 PUSH2 0x100 DUP3 ADD SWAP1 POP PUSH2 0x76E PUSH0 DUP4 ADD DUP12 PUSH2 0x6C6 JUMP JUMPDEST PUSH2 0x77B PUSH1 0x20 DUP4 ADD DUP11 PUSH2 0x6C6 JUMP JUMPDEST PUSH2 0x788 PUSH1 0x40 DUP4 ADD DUP10 PUSH2 0x6C6 JUMP JUMPDEST PUSH2 0x795 PUSH1 0x60 DUP4 ADD DUP9 PUSH2 0x6C6 JUMP JUMPDEST DUP2 DUP2 SUB PUSH1 0x80 DUP4 ADD MSTORE PUSH2 0x7A7 DUP2 DUP8 PUSH2 0x722 JUMP JUMPDEST SWAP1 POP DUP2 DUP2 SUB PUSH1 0xA0 DUP4 ADD MSTORE PUSH2 0x7BB DUP2 DUP7 PUSH2 0x722 JUMP JUMPDEST SWAP1 POP PUSH2 0x7CA PUSH1 0xC0 DUP4 ADD DUP6 PUSH2 0x6C6 JUMP JUMPDEST PUSH2 0x7D7 PUSH1 0xE0 DUP4 ADD DUP5 PUSH2 0x687 JUMP JUMPDEST SWAP10 SWAP9 POP POP POP POP POP POP POP POP POP JUMP INVALID LOG2 PUSH5 0x6970667358 0x22 SLT KECCAK256 LOG3 0xDC PUSH22 0x7124D8DAF13A2CC72176E90DC5D70D1E4E89F8D75BA EXTCODECOPY SLOAD PUSH0 PREVRANDAO 0xAD 0xD7 0xB9 PUSH5 0x736F6C6343 STOP ADDMOD NOT STOP CALLER "
		},
		"gasEstimates": {
			"creation": {
				"codeDepositCost": "414800",
				"executionCost": "447",
				"totalCost": "415247"
			},
			"external": {
				"_boundingBox(int256,int256,int256,int256,string,string,int256)": "infinite",
				"_bounding_box_callback(uint256[])": "558",
				"_geocode(string)": "infinite",
				"_geocode_callback(uint256)": "467",
				"_reverse_geocode(int256,int256)": "infinite",
				"_reverse_geocode_callback(uint256)": "423"
			}
		},
		"methodIdentifiers": {
			"_boundingBox(int256,int256,int256,int256,string,string,int256)": "8c16e399",
			"_bounding_box_callback(uint256[])": "b3402908",
			"_geocode(string)": "0f4081a9",
			"_geocode_callback(uint256)": "96cf0f90",
			"_reverse_geocode(int256,int256)": "172e277e",
			"_reverse_geocode_callback(uint256)": "42b09cf4"
		}
	},
	"abi": [
		{
			"anonymous": false,
			"inputs": [
				{
					"indexed": false,
					"internalType": "int256",
					"name": "xmin",
					"type": "int256"
				},
				{
					"indexed": false,
					"internalType": "int256",
					"name": "ymin",
					"type": "int256"
				},
				{
					"indexed": false,
					"internalType": "int256",
					"name": "xmax",
					"type": "int256"
				},
				{
					"indexed": false,
					"internalType": "int256",
					"name": "ymax",
					"type": "int256"
				},
				{
					"indexed": false,
					"internalType": "string",
					"name": "key",
					"type": "string"
				},
				{
					"indexed": false,
					"internalType": "string",
					"name": "val",
					"type": "string"
				},
				{
					"indexed": false,
					"internalType": "int256",
					"name": "limit",
					"type": "int256"
				},
				{
					"indexed": false,
					"internalType": "address",
					"name": "caller",
					"type": "address"
				}
			],
			"name": "BoundingBox",
			"type": "event"
		},
		{
			"anonymous": false,
			"inputs": [
				{
					"indexed": false,
					"internalType": "string",
					"name": "location",
					"type": "string"
				},
				{
					"indexed": false,
					"internalType": "address",
					"name": "caller",
					"type": "address"
				}
			],
			"name": "Geocode",
			"type": "event"
		},
		{
			"anonymous": false,
			"inputs": [
				{
					"indexed": false,
					"internalType": "int256",
					"name": "lat",
					"type": "int256"
				},
				{
					"indexed": false,
					"internalType": "int256",
					"name": "lon",
					"type": "int256"
				},
				{
					"indexed": false,
					"internalType": "address",
					"name": "caller",
					"type": "address"
				}
			],
			"name": "ReverseGeocode",
			"type": "event"
		},
		{
			"inputs": [
				{
					"internalType": "int256",
					"name": "xmin",
					"type": "int256"
				},
				{
					"internalType": "int256",
					"name": "ymin",
					"type": "int256"
				},
				{
					"internalType": "int256",
					"name": "xmax",
					"type": "int256"
				},
				{
					"internalType": "int256",
					"name": "ymax",
					"type": "int256"
				},
				{
					"internalType": "string",
					"name": "key",
					"type": "string"
				},
				{
					"internalType": "string",
					"name": "val",
					"type": "string"
				},
				{
					"internalType": "int256",
					"name": "limit",
					"type": "int256"
				}
			],
			"name": "_boundingBox",
			"outputs": [],
			"stateMutability": "nonpayable",
			"type": "function"
		},
		{
			"inputs": [
				{
					"internalType": "uint256[]",
					"name": "nodes",
					"type": "uint256[]"
				}
			],
			"name": "_bounding_box_callback",
			"outputs": [],
			"stateMutability": "nonpayable",
			"type": "function"
		},
		{
			"inputs": [
				{
					"internalType": "string",
					"name": "location",
					"type": "string"
				}
			],
			"name": "_geocode",
			"outputs": [],
			"stateMutability": "nonpayable",
			"type": "function"
		},
		{
			"inputs": [
				{
					"internalType": "uint256",
					"name": "node",
					"type": "uint256"
				}
			],
			"name": "_geocode_callback",
			"outputs": [],
			"stateMutability": "nonpayable",
			"type": "function"
		},
		{
			"inputs": [
				{
					"internalType": "int256",
					"name": "lat",
					"type": "int256"
				},
				{
					"internalType": "int256",
					"name": "lon",
					"type": "int256"
				}
			],
			"name": "_reverse_geocode",
			"outputs": [],
			"stateMutability": "nonpayable",
			"type": "function"
		},
		{
			"inputs": [
				{
					"internalType": "uint256",
					"name": "node",
					"type": "uint256"
				}
			],
			"name": "_reverse_geocode_callback",
			"outputs": [],
			"stateMutability": "nonpayable",
			"type": "function"
		}
	]
}